S01700004763634170706C69636174696F6E312E737265635B
S11300000C94B4010C94D1010C94D1010C94D10141
S11300100C94D1010C94D1010C94D1010C94D10114
S11300200C94D1010C94D1010C94D1010C94D10104
S11300300C94D1010C94D1010C94D1010C94D101F4
S11300400C94D1010C94D1010C94D1010C94D101E4
S11300500C94D1010C94D1010C94D1010C94E902BB
S11300600C94D1010C94D1010C94D1010C94D101C4
S1130070000000000000000000065F5F06000000B2
S11300800007070007070000147F7F147F7F140018
S1130090242E6B6B3A120000466630180C66620020
S11300A0307A4F5D377A48000407030000000000EF
S11300B0001C3E63410000000041633E1C00000040
S11300C0082A3E1C1C3E2A0808083E3E0808000078
S11300D000A0E0600000000008080808080800000C
S11300E000006060000000006030180C060301008E
S11300F03E7F594D7F3E000042427F7F40400000DA
S1130100627359496F660000226349497F360000D3
S1130110181C16137F7F1000276745457D390000A2
S11301203C7E4B4979300000036371190F070000CE
S1130130367F49497F360000064F49693F1E00005B
S113014000006C6C0000000000A0EC6C00000000DB
S1130150081C366341000000141414141414000025
S1130160004163361C080000020351590F060000C9
S11301703E7F415D5D1F1E007C7E13137E7C00006C
S1130180417F7F49497F36001C3E63414163220021
S1130190417F7F41637F1C00417F7F495D41630054
S11301A0417F7F491D0103001C3E6341517372006E
S11301B07F7F08087F7F000000417F7F41000000AF
S11301C0307040417F3F0100417F7F081C7763000E
S11301D0417F7F41406070007F7F060C067F7F0077
S11301E07F7F060C187F7F001C3E6341633E1C002A
S11301F0417F7F49090F06001E3F21717F5E000089
S1130200417F7F19396F460026674D597B320000C4
S113021003417F7F410300007F7F40407F7F0000D8
S11302201F3F60603F1F00007F7F3018307F7F00DA
S113023063771C081C776300074F78784F0700002A
S11302406773594D47637100007F7F41410000008F
S11302500103060C183060000041417F7F0000005C
S1130260080C0603060C0800808080808080808053
S11302700000030704000000207454543C7840003C
S1130280413F7F44447C3800387C44446C2800005F
S1130290307848493F7F4000387C54545C18000053
S11302A0487E7F490302000098BCA4A4F87C0400A3
S11302B0417F7F08047C780000447D7D400000007D
S11302C040C484FD7D000000417F7F10386C4400F1
S11302D000417F7F400000007C7C0C180C7C78007F
S11302E07C7C04047C780000387C44447C38000026
S11302F084FCF8A4243C1800183C24A4F8FC8400D2
S1130300447C78441C180000485C54547424000055
S113031000043E7F442400003C7C40403C7C400080
S11303201C3C60603C1C00003C7C6030607C3C00F9
S1130330446C3810386C44009CBCA0A0FC7C0000C9
S11303404C64745C4C64000008083E774141000032
S113035000000077770000004141773E0808000064
S1130360020301030203010011241FBECFEFD4E0F6
S1130370DEBFCDBF11E0A0E0B1E0E0E2F9E002C0F1
S113038005900D92AA30B107D9F721E0AAE0B1E0B7
S113039001C01D92A831B207E1F70E94F0010C944C
S11303A08E040C9400008068E0E0F4E180838BEE1E
S11303B091E00197F1F700C0808190E0089580E01A
S11303C090E00E94D30190930B0180930A0181E095
S11303D090E00E94D30190930D0180930C01089545
S11303E078940E94D9020E94F8020E94DF010E94C0
S11303F016020E947B028FEF0E94930287E091E035
S11304000E949D0287E091E00E949D022FEF8FE7FA
S113041091E0215080409040E1F700C000C0F6CF49
S11304208093001008958093001208958EEA0E942C
S1130430100281EA0E94100282E10E94100288ECFC
S11304400E94100288EA0E9410028FE30E941002A8
S113045085ED0E94100280E80E94100281E80E944B
S1130460100280E50E94100289ED0E94100281E2D0
S11304700E94100280E20E94100282E00E94100298
S11304808BED0E94100280E30E9410028DEA0E940C
S1130490100280E00E94100284EA0E94100286EAA0
S11304A00E9410028FEA0E941002089580550E9453
S11304B010020895CF93C82F8F700E9410028C2FC2
S11304C082958F70805F0E941002CF910895CF9320
S11304D0DF930E945602C0E0D0E007C08C2F0E9438
S11304E05A0280E00E9413022196CF37D105B4F35B
S11304F0DF91CF910895CF93DF93C0E0D0E004C0A3
S11305008C2F0E9467022196C730D105CCF3DF916E
S1130510CF910895CF93C62F0E9456028C2F0E942C
S11305205A02CF910895CF93C82F81E80E941002F8
S11305308C2F0E941002CF910895FF920F931F9366
S1130540CF93DF938C01C0E0D0E017C0D801EC91C9
S1130550F0E0B097EE0FFF1FEE0FFF1FEE0FFF1F2F
S1130560EC0FFD1FE059FF4FF4906C2F81E00E94C7
S11305708A028F2D0E9413022196C830D10534F3CC
S1130580DF91CF911F910F91FF90089590910601F3
S11305909923E1F3109206018CB98A3019F48DE0A5
S11305A00E94C60280E090E008955F9BFECF8CB16C
S11305B0089510BC8FE189B98AB188658AB980B57C
S11305C08E6880BD65ED72E086EC92E00E94FF02C9
S11305D008951F920F920FB60F9211248F9381E00A
S11305E0809306018F910F900FBE0F901F90189566
S11305F085B7806885BF80B7806280BF08950F93F8
S11306001F93CF93DF93009731F46115710519F4AB
S113061080E090E03AC08B01EC016EE070E081E094
S113062090E00E944A03FC01892B91F380E88383C4
S11306300115110571F01387028781E88383809186
S11306400E0190910F01892B21F4F0930F01E09397
S11306500E012097C9F0D187C0878381826083838C
S11306608091100190911101892B71F4F093110183
S1130670E09310018091120190911301892B21F4D0
S1130680F0931301E0931201CF01DF91CF911F91F9
S11306900F9108950F931F93CF93DF93869F80014B
S11306A0879F100D969F100D1124C8010E946603A8
S11306B0EC01009729F0A80160E070E00E94870433
S11306C0CE01DF91CF911F910F9108950F931F9346
S11306D0CF93DF938230910510F482E090E0E091B3
S11306E01601F091170120E030E0A0E0B0E030976F
S11306F019F1408151810281138148175907C8F0CB
S11307008417950769F4109731F012960C93129799
S113071013961C9327C0009316011093170122C04F
S11307202115310519F04217530718F49A01BD0138
S1130730EF01DF01F801DBCF21153105F9F0281BAA
S1130740390B2430310580F48A819B816115710550
S113075021F0FB019383828304C09093170180935B
S11307601601FE01329644C0FE01E20FF31F81938D
S1130770919322503109398328833AC0209114017E
S113078030911501232B41F4209102013091030192
S1130790309315012093140120910001309101013F
S11307A02115310541F42DB73EB740910401509114
S11307B00501241B350BE0911401F0911501E2179A
S11307C0F307A0F42E1B3F0B2817390778F0AC0170
S11307D04E5F5F4F2417350748F04E0F5F1F50934D
S11307E01501409314018193919302C0E0E0F0E07D
S11307F0CF01DF91CF911F910F910895CF93DF9394
S1130800009709F481C0FC01329713821282A091EF
S11308101601B0911701109781F420813181820F64
S1130820931F20911401309115012817390751F5B0
S1130830F0931501E093140167C0ED0120E030E06E
S1130840CE17DF0740F44A815B819E0141155105B3
S1130850F1F0EA01F5CFD383C28340815181840F43
S1130860951FC817D90759F488819981840F951F5A
S11308700296918380838A819B819383828321154D
S1130880310529F4F0931701E09316013DC0E90105
S1130890FB83EA8349915991C40FD51FEC17FD07D7
S11308A061F480819181840F951F0296E9019983F7
S11308B08883828193819B838A83E0E0F0E01296AF
S11308C08D919C911397009719F0FD01DC01F7CFEE
S11308D08D919C9111979D012E5F3F4F820F931F25
S11308E020911401309115012817390769F43097C4
S11308F029F4109217011092160102C01382128279
S1130900B0931501A0931401DF91CF910895DC01F8
S113091001C06D9341505040E0F70895F894FFCF23
S10D0920000018012000016100002E
S9030000FC
