S01700004763634170706C69636174696F6E312E737265635B
S11300000C9438000C9455000C9455000C94550035
S11300100C9455000C9455000C9455000C94550008
S11300200C9455000C9455000C9455000C945500F8
S11300300C9455000C9455000C9455000C945500E8
S11300400C9455000C9455000C9455000C945500D8
S11300500C9455000C9455000C9455000C943702E4
S11300600C9455000C9455000C9455000C945500B8
S113007011241FBECFEFD4E0DEBFCDBF11E0A0E05E
S1130080B1E0E8EDFDE002C005900D92A637B1079E
S1130090D9F721E0A6E7B1E001C01D92A438B20768
S11300A0E1F70E947B000C94EA060C94000080683F
S11300B0E0E0F4E180838BEE91E00197F1F700C07A
S11300C0808190E0089580E090E00E945700909332
S11300D077018093760181E090E00E94570090932D
S11300E0790180937801089587B38D7F87BB88B3A6
S11300F0826088BB089578940E9427020E94460279
S11301000E9463000E9474000E9484010E94E9011D
S11301108FEF0E94F8010E94030160E088E40E94CE
S1130120370180E00E946E012FEF8FEF9EE0215097
S113013080409040E1F700C0000080E00E9452013E
S11301401F928F9387E091E09F938F930E94980270
S11301500F900F900F900F90E0CF88B38F7E88BBE5
S113016080EC0E94150288B3806188BB0895CF9308
S1130170C82F88B38F7E88BB83E00E9415028C2F22
S11301800E9415020E940F0298B3906198BBCF9110
S11301900895CF93DF93D82FC62F88B38F7E88BB63
S11301A082E00E9415028D2F0E9415028C2F0E945E
S11301B0150288B3806188BBDF91CF910895CF93F6
S11301C0C82F1F928F938CE091E09F938F930E948E
S11301D098026C2F8FE00E94C9008FE00E94B70044
S11301E0807E1F928F938EE191E09F938F930E9464
S11301F098028DB79EB708960FB6F8949EBF0FBEAF
S11302008DBFCF910895CF93DF930E9402020E9485
S1130210AD0087EA91E60197F1F700C00000C0E065
S113022011C083EC99E00197F1F700C000008EE063
S11302300E94B700807ED1E0803809F0D0E0803899
S113024019F0CF5FCA3068F3D11106C089E291E09A
S11302500E94AE0281E008C08EE591E00E94AE02E9
S113026080E40E94DF0080E0DF91CF910895CF9376
S1130270C82F613029F040F0623021F080E005C0E1
S113028083E403C085E401C081E498B39F7E98BBF6
S11302900E9415028C2F0E94150288B3806188BBCE
S11302A0CF910895CF93882331F0813011F080E00D
S11302B003C085E901C081E998B39F7E98BB0E9481
S11302C015020E940F02C82F88B3806188BB61E0C9
S11302D085E30E94C9008C2FCF910895813029F0C5
S11302E040F0823021F080E005C080E403C080E566
S11302F001C080E368E00E94C90008958093001063
S113030008958093001208958EEA0E947E0181EA86
S11303100E947E0182E10E947E0188EC0E947E019F
S113032088EA0E947E018FE30E947E0185ED0E948F
S11303307E0180E80E947E0181E80E947E0180E5C2
S11303400E947E0189ED0E947E0181E20E947E016D
S113035080E20E947E0182E00E947E018BED0E9479
S11303607E0180E30E947E018DEA0E947E0180E08E
S11303700E947E0184EA0E947E0186EA0E947E0138
S11303808FEA0E947E01089580550E947E0108959F
S1130390CF93C82F8F700E947E018C2F82958F700F
S11303A0805F0E947E01CF910895CF93DF930E94D6
S11303B0C401C0E0D0E007C08C2F0E94C80180E0D7
S11303C00E9481012196C038D105B4F3DF91CF9109
S11303D00895CF93DF93C0E0D0E004C08C2F0E9437
S11303E0D5012196C830D105CCF3DF91CF91089582
S11303F0CF93C82F81E80E947E018C2F0E947E013A
S1130400CF91089587B3806B87BB87B38F7B87BBFE
S11304108DB181658DB98EB18E7F8EB908958FEFC0
S11304208FB9779BFECF8FB108958FB9779BFECF9D
S11304300895909106019923E1F3109206018CB975
S113044080E090E008955F9BFECF8CB1089510BCCE
S11304508FE189B98AB188658AB980B58E6880BD13
S113046063E272E089E192E00E944D0208951F92D6
S11304700F920FB60F9211248F9381E0809306019F
S11304808F910F900FBE0F901F90189585B78068BD
S113049085BF80B7806280BF08950F931F93CF9369
S11304A0DF93009731F46115710519F480E090E051
S11304B03AC08B01EC016EE070E081E090E00E94B4
S11304C0BF04FC01892B91F380E883830115110596
S11304D071F01387028781E8838380917A01909178
S11304E07B01892B21F4F0937B01E0937A0120971F
S11304F0C9F0D187C08783818260838380917C0126
S113050090917D01892B71F4F0937D01E0937C013E
S113051080917E0190917F01892B21F4F0937F01DA
S1130520E0937E01CF01DF91CF911F910F91089548
S1130530A0E0B0E0EEE9F2E00C94C306AE014B5F3C
S11305405F4FFA0161917191AF0180917C019091AB
S11305507D010E94DE02E2E00C94DF060F931F93FC
S1130560CF93DF93E0917C01F0917D01238121FF02
S11305701BC08C01D0E0C0E0F80181918F01609133
S11305807C0170917D01DB011896ED91FC91199726
S1130590882331F00995892B79F3DFEFCFEFECCF86
S11305A08AE00995892B19F08FEF9FEF02C08D2FF8
S11305B09C2FDF91CF911F910F910895ABE0B0E094
S11305C0E4EEF2E00C94B3066C017B018A01FC01B9
S11305D017821682838181FFCCC1CE0101963C0132
S11305E0F6019381F70193FD859193FF81917F013A
S11305F0882309F4BAC1853239F493FD859193FFB8
S113060081917F01853229F4B60190E00E94190698
S1130610E7CF912C212C312CFFE1F315D8F08B324C
S113062079F038F4803279F08332A1F4232D2061FB
S11306301DC08D3261F0803369F4232D216016C012
S1130640832D8260382EE32DE4603E2E2AC0F32DE4
S1130650F8601DC037FC2DC020ED280F2A3040F073
S11306608E32B9F436FC81C1232D2064322E19C098
S113067036FE06C08AE0989E200D1124922E11C0E9
S1130680EAE02E9E200D1124222EF32DF0623F2E3F
S113069008C08C3621F4832D8068382E02C0883639
S11306A041F4F70193FD859193FF81917F018111BD
S11306B0B3CF982F9F7D9554933028F40C5F1F4F30
S11306C09FE399830DC0833631F0833771F083350E
S11306D009F059C021C0F801808189830E5F1F4F42
S11306E088248394912C530113C02801F2E04F0E07
S11306F0511CF801A080B18036FE03C0692D70E062
S113070002C06FEF7FEFC5010E940E064C0182010B
S1130710F32DFF773F2E16C0280122E0420E511C14
S1130720F801A080B18036FE03C0692D70E002C0DC
S11307306FEF7FEFC5010E94FC054C01F32DF068BB
S11307403F2E820133FC1BC0822D90E0881699064F
S1130750B0F4B60180E290E00E9419062A94F4CF26
S1130760F50137FC859137FE81915F01B60190E078
S11307700E94190621102A9421E0821A91088114FA
S1130780910471F7E8C0843611F0893641F5F80117
S113079037FE07C060817181828193810C5F1F4F96
S11307A008C060817181072E000C880B990B0E5FC5
S11307B01F4FF32DFF763F2E97FF09C0909580952C
S11307C0709561957F4F8F4F9F4FF0683F2E2AE0C1
S11307D030E0A3010E945506882E861845C085374F
S11307E031F4232D2F7EB22E2AE030E025C0932D44
S11307F0997FB92E8F36C1F018F4883579F0B5C0D9
S1130800803719F0883721F0B0C0E92FE061BE2E9F
S1130810B4FE0DC0FB2DF460BF2E09C034FE0AC027
S1130820292F2660B22E06C028E030E005C020E162
S113083030E002C020E132E0F801B7FE07C0608179
S11308407181828193810C5F1F4F06C06081718129
S113085080E090E00E5F1F4FA3010E945506882E92
S11308608618FB2DFF773F2E36FE0DC0232D2E7FDD
S1130870A22E891458F434FE0BC032FC09C0832D17
S11308808E7EA82E05C0B82CA32C03C0B82C01C0A2
S1130890B92CA4FE0FC0FE01E80DF11D8081803348
S11308A021F49A2D997EA92E09C0A2FE06C0B39404
S11308B0B39404C08A2D867809F0B394A3FC11C0C4
S11308C0A0FE06C0B21488F4280C922C9B180EC00B
S11308D0B21460F4B60180E290E00E941906B39469
S11308E0F7CFB21418F42B1802C0982C212CA4FEB4
S11308F010C0B60180E390E00E941906A2FE17C062
S1130900A1FC03C088E790E002C088E590E0B6014E
S11309100CC08A2D867859F0A1FE02C08BE201C07A
S113092080E2A7FC8DE2B60190E00E9419068914CA
S113093038F4B60180E390E00E9419069A94F7CF48
S11309408A94F301E80DF11D8081B60190E00E94C4
S113095019068110F5CF222009F442CEB60180E2B7
S113096090E00E9419062A94F6CFF60186819781B9
S113097002C08FEF9FEF2B96E2E10C94CF060F930A
S11309801F93CF93DF93869F8001879F100D969FBF
S1130990100D1124C8010E94DB04EC01009729F01A
S11309A0A80160E070E00E940706CE01DF91CF91BC
S11309B01F910F9108950F931F93CF93DF9382306C
S11309C0910510F482E090E0E0918201F0918301BE
S11309D020E030E0A0E0B0E0309719F1408151818F
S11309E00281138148175907C8F08417950769F4E1
S11309F0109731F012960C93129713961C9327C0FC
S1130A00009382011093830122C02115310519F04E
S1130A104217530718F49A01BD01EF01DF01F801F1
S1130A20DBCF21153105F9F0281B390B24303105B2
S1130A3080F48A819B816115710521F0FB01938308
S1130A40828304C09093830180938201FE013296D5
S1130A5044C0FE01E20FF31F8193919322503109A8
S1130A60398328833AC02091800130918101232B5E
S1130A7041F42091020130910301309381012093CC
S1130A80800120910001309101012115310541F4CB
S1130A902DB73EB74091040150910501241B350B3D
S1130AA0E0918001F0918101E217F307A0F42E1B7D
S1130AB03F0B2817390778F0AC014E5F5F4F2417BE
S1130AC0350748F04E0F5F1F50938101409380011A
S1130AD08193919302C0E0E0F0E0CF01DF91CF91E8
S1130AE01F910F910895CF93DF93009709F481C06C
S1130AF0FC01329713821282A0918201B09183018A
S1130B00109781F420813181820F931F20918001FD
S1130B10309181012817390751F5F0938101E09351
S1130B20800167C0ED0120E030E0CE17DF0740F41C
S1130B304A815B819E0141155105F1F0EA01F5CF2F
S1130B40D383C28340815181840F951FC817D9076D
S1130B5059F488819981840F951F0296918380832B
S1130B608A819B81938382832115310529F4F09333
S1130B708301E09382013DC0E901FB83EA8349914B
S1130B805991C40FD51FEC17FD0761F48081918141
S1130B90840F951F0296E90199838883828193814A
S1130BA09B838A83E0E0F0E012968D919C911397E9
S1130BB0009719F0FD01DC01F7CF8D919C911197FD
S1130BC09D012E5F3F4F820F931F20918001309132
S1130BD081012817390769F4309729F410928301A9
S1130BE01092820102C013821282B0938101A093F9
S1130BF08001DF91CF910895FC0105906150704010
S1130C000110D8F7809590958E0F9F1F0895DC01F1
S1130C1001C06D9341505040E0F70895FC016150CC
S1130C20704001900110D8F7809590958E0F9F1F0A
S1130C3008950F931F93CF93DF93FB01238121FD2D
S1130C4003C08FEF9FEF2CC022FF16C0468157814F
S1130C50248135814217530744F4A081B1819D0159
S1130C602F5F3F4F318320838C93268137812F5F01
S1130C703F4F3783268314C08B01EC01FB010084B2
S1130C80F185E02D0995892BE1F6D80116968D9111
S1130C909C911797019617969C938E931697CE0165
S1130CA0DF91CF911F910F910895FA01AA2728305F
S1130CB051F1203181F1E8946F936E7F6E5F7F4F25
S1130CC08F4F9F4FAF4FB1E03ED0B4E03CD0670FA1
S1130CD0781F891F9A1FA11D680F791F8A1F911DF4
S1130CE0A11D6A0F711D811D911DA11D20D009F444
S1130CF068943F912AE0269F11243019305D319386
S1130D00DEF6CF010895462F4770405D4193B3E06E
S1130D100FD0C9F7F6CF462F4F70405D4A3318F015
S1130D20495D31FD4052419302D0A9F7EACFB4E0C6
S1130D30A6959795879577956795BA95C9F700977E
S1130D406105710508959B01AC010A2E069457951F
S1130D50479537952795BA95C9F7620F731F841F76
S1130D60951FA01D08952F923F924F925F926F920C
S1130D707F928F929F92AF92BF92CF92DF92EF9227
S1130D80FF920F931F93CF93DF93CDB7DEB7CA1BA8
S1130D90DB0B0FB6F894DEBF0FBECDBF09942A88D3
S1130DA0398848885F846E847D848C849B84AA847B
S1130DB0B984C884DF80EE80FD800C811B81AA8108
S1130DC0B981CE0FD11D0FB6F894DEBF0FBECDBFD3
S10B0DD0ED010895F894FFCF32
S1130DD80000840120000125630D0A005365742076
S1130DE8746F206D6F64653A2025780D0A004D6F85
S1130DF864653A2025780D0A00204D435032353178
S1130E0835206973204E4F5420696E20636F6E66D7
S1130E18696775726174696F6E206D6F64652061AE
S1130E286674657220726573657420210D004D43E4
S1130E38503235313520696E20636F6E66696720DC
S1090E486D6F64650D00EE
S9030000FC
