:100000000C94B4010C94D1010C94D1010C94D10145
:100010000C94D1010C94D1010C94D1010C94D10118
:100020000C94D1010C94D1010C94D1010C94D10108
:100030000C94D1010C94D1010C94D1010C94D101F8
:100040000C94D1010C94D1010C94D1010C94D101E8
:100050000C94D1010C94D1010C94D1010C942E0379
:100060000C94D1010C94D1010C94D1010C94D101C8
:10007000000000000000000000065F5F06000000B6
:100080000007070007070000147F7F147F7F14001C
:10009000242E6B6B3A120000466630180C66620024
:1000A000307A4F5D377A48000407030000000000F3
:1000B000001C3E63410000000041633E1C00000044
:1000C000082A3E1C1C3E2A0808083E3E080800007C
:1000D00000A0E06000000000080808080808000010
:1000E00000006060000000006030180C0603010092
:1000F0003E7F594D7F3E000042427F7F40400000DE
:10010000627359496F660000226349497F360000D7
:10011000181C16137F7F1000276745457D390000A6
:100120003C7E4B4979300000036371190F070000D2
:10013000367F49497F360000064F49693F1E00005F
:1001400000006C6C0000000000A0EC6C00000000DF
:10015000081C366341000000141414141414000029
:10016000004163361C080000020351590F060000CD
:100170003E7F415D5D1F1E007C7E13137E7C000070
:10018000417F7F49497F36001C3E63414163220025
:10019000417F7F41637F1C00417F7F495D41630058
:1001A000417F7F491D0103001C3E63415173720072
:1001B0007F7F08087F7F000000417F7F41000000B3
:1001C000307040417F3F0100417F7F081C77630012
:1001D000417F7F41406070007F7F060C067F7F007B
:1001E0007F7F060C187F7F001C3E6341633E1C002E
:1001F000417F7F49090F06001E3F21717F5E00008D
:10020000417F7F19396F460026674D597B320000C8
:1002100003417F7F410300007F7F40407F7F0000DC
:100220001F3F60603F1F00007F7F3018307F7F00DE
:1002300063771C081C776300074F78784F0700002E
:100240006773594D47637100007F7F414100000093
:100250000103060C183060000041417F7F00000060
:10026000080C0603060C0800808080808080808057
:100270000000030704000000207454543C78400040
:10028000413F7F44447C3800387C44446C28000063
:10029000307848493F7F4000387C54545C18000057
:1002A000487E7F490302000098BCA4A4F87C0400A7
:1002B000417F7F08047C780000447D7D4000000081
:1002C00040C484FD7D000000417F7F10386C4400F5
:1002D00000417F7F400000007C7C0C180C7C780083
:1002E0007C7C04047C780000387C44447C3800002A
:1002F00084FCF8A4243C1800183C24A4F8FC8400D6
:10030000447C78441C180000485C54547424000059
:1003100000043E7F442400003C7C40403C7C400084
:100320001C3C60603C1C00003C7C6030607C3C00FD
:10033000446C3810386C44009CBCA0A0FC7C0000CD
:100340004C64745C4C64000008083E774141000036
:1003500000000077770000004141773E0808000068
:10036000020301030203010011241FBECFEFD4E0FA
:10037000DEBFCDBF11E0A0E0B1E0EAEAF9E002C0E3
:1003800005900D92A631B107D9F721E0A6E1B1E0C1
:1003900001C01D92A432B207E1F70E94F0010C9453
:1003A000D3040C9400008068E0E0F4E180838BEEDD
:1003B00091E00197F1F700C0808190E0089580E01E
:1003C00090E00E94D301909317018093160181E081
:1003D00090E00E94D3019093190180931801089531
:1003E00078940E941E030E943D030E94DF010E9438
:1003F0001E020E9483028FEF0E949B0260E081E058
:100400000E94010348E061E087E091E00E94D90288
:1004100041E062E08DE091E00E94D9022FEF8FE78A
:1004200091E0215080409040E1F700C000C0F6CF3D
:100430008093001008958093001208958EEA0E9420
:10044000180281EA0E94180282E10E94180288ECD8
:100450000E94180288EA0E9418028FE30E94180284
:1004600085ED0E94180280E80E94180281E80E942F
:10047000180280E50E94180289ED0E94180281E2AC
:100480000E94180280E20E94180282E00E94180274
:100490008BED0E94180280E30E9418028DEA0E94F0
:1004A000180280E00E94180284EA0E94180286EA7C
:1004B0000E9418028FEA0E941802089580550E9437
:1004C00018020895CF93C82F8F700E9418028C2FA6
:1004D00082958F70805F0E941802CF910895CF930C
:1004E000DF930E945E02C0E0D0E007C08C2F0E9424
:1004F000620280E00E941B022196CF37D105B4F33F
:10050000DF91CF910895CF93DF93C0E0D0E004C096
:100510008C2F0E946F022196C730D105CCF3DF915A
:10052000CF910895CF93C62F0E945E028C2F0E9418
:100530006202CF910895CF93C82F81E80E941802DC
:100540008C2F0E941802CF910895DF92EF92FF92B4
:100550000F931F93CF93DF93D82ED62FE42EF12C39
:1005600087011AC0ED2DF0E0B097C8018E199F09E0
:10057000EE0FFF1FEE0FFF1FEE0FFF1FE80FF91F1B
:10058000E059FF4FC491602F8D2F0E9492028C2F53
:100590000E941B020F5F1F4FC7010896081719071B
:1005A0000CF3DF91CF911F910F91FF90EF90DF90AF
:1005B0000895EF92FF920F931F93CF93DF938C01D7
:1005C000E62EF42EC0E0D0E00BC0F801EC0FFD1FCA
:1005D0004F2D6E2D80810E94A50288E0F80E219695
:1005E000F80101900020E9F73197E01BF10BCE17DD
:1005F000DF0758F3DF91CF911F910F91FF90EF909C
:1006000008950E94920288E10E941B028EE70E94D8
:100610001B028CE30E941B0288E10E941B020895CA
:10062000909106019923E1F3109206018CB980E0C4
:1006300090E008955F9BFECF8CB1089510BC8FE1D0
:1006400089B98AB188658AB980B58E6880BD6AE14A
:1006500073E080E193E00E94440308951F920F929B
:100660000FB60F9211248F9381E0809306018F9132
:100670000F900FBE0F901F90189585B7806885BFAB
:1006800080B7806280BF08950F931F93CF93DF934D
:10069000009731F46115710519F480E090E03AC0DB
:1006A0008B01EC016EE070E081E090E00E948F032E
:1006B000FC01892B91F380E883830115110571F00A
:1006C0001387028781E8838380911A0190911B012F
:1006D000892B21F4F0931B01E0931A012097C9F0B4
:1006E000D187C08783818260838380911C01909130
:1006F0001D01892B71F4F0931D01E0931C01809181
:100700001E0190911F01892B21F4F0931F01E093AA
:100710001E01CF01DF91CF911F910F9108950F938B
:100720001F93CF93DF93869F8001879F100D969F25
:10073000100D1124C8010E94AB03EC01009729F0B1
:10074000A80160E070E00E94CC04CE01DF91CF915F
:100750001F910F9108950F931F93CF93DF938230D2
:10076000910510F482E090E0E0912201F0912301E4
:1007700020E030E0A0E0B0E0309719F140815181F5
:100780000281138148175907C8F08417950769F447
:10079000109731F012960C93129713961C9327C062
:1007A000009322011093230122C02115310519F075
:1007B0004217530718F49A01BD01EF01DF01F80158
:1007C000DBCF21153105F9F0281B390B2430310519
:1007D00080F48A819B816115710521F0FB0193836F
:1007E000828304C09093230180932201FE013296FC
:1007F00044C0FE01E20FF31F81939193225031090F
:10080000398328833AC02091200130912101232B84
:1008100041F4209102013091030130932101209392
:10082000200120910001309101012115310541F491
:100830002DB73EB74091040150910501241B350BA3
:10084000E0912001F0912101E217F307A0F42E1BA3
:100850003F0B2817390778F0AC014E5F5F4F241724
:10086000350748F04E0F5F1F509321014093200140
:100870008193919302C0E0E0F0E0CF01DF91CF914E
:100880001F910F910895CF93DF93009709F481C0D2
:10089000FC01329713821282A0912201B0912301B0
:1008A000109781F420813181820F931F20912001C4
:1008B000309121012817390751F5F0932101E09378
:1008C000200167C0ED0120E030E0CE17DF0740F4E3
:1008D0004A815B819E0141155105F1F0EA01F5CF96
:1008E000D383C28340815181840F951FC817D907D4
:1008F00059F488819981840F951F02969183808392
:100900008A819B81938382832115310529F4F09399
:100910002301E09322013DC0E901FB83EA83499171
:100920005991C40FD51FEC17FD0761F480819181A7
:10093000840F951F0296E9019983888382819381B0
:100940009B838A83E0E0F0E012968D919C9113974F
:10095000009719F0FD01DC01F7CF8D919C91119763
:100960009D012E5F3F4F820F931F209120013091F8
:1009700021012817390769F4309729F410922301CF
:100980001092220102C013821282B0932101A0931F
:100990002001DF91CF910895DC0101C06D9341509A
:0A09A0005040E0F70895F894FFCFEF
:1009AA000000240120000148656C6C6F0048656CEA
:0609BA006C6F203200000A
:00000001FF
