:100000000C94B4010C94D1010C94D1010C94D10145
:100010000C94D1010C94D1010C94D1010C94D10118
:100020000C94D1010C94D1010C94D1010C94D10108
:100030000C94D1010C94D1010C94D1010C94D101F8
:100040000C94D1010C94D1010C94D1010C94D101E8
:100050000C94D1010C94D1010C94D1010C94B804EE
:100060000C94D1010C94D1010C94D1010C94D101C8
:10007000000000000000000000065F5F06000000B6
:100080000007070007070000147F7F147F7F14001C
:10009000242E6B6B3A120000466630180C66620024
:1000A000307A4F5D377A48000407030000000000F3
:1000B000001C3E63410000000041633E1C00000044
:1000C000082A3E1C1C3E2A0808083E3E080800007C
:1000D00000A0E06000000000080808080808000010
:1000E00000006060000000006030180C0603010092
:1000F0003E7F594D7F3E000042427F7F40400000DE
:10010000627359496F660000226349497F360000D7
:10011000181C16137F7F1000276745457D390000A6
:100120003C7E4B4979300000036371190F070000D2
:10013000367F49497F360000064F49693F1E00005F
:1001400000006C6C0000000000A0EC6C00000000DF
:10015000081C366341000000141414141414000029
:10016000004163361C080000020351590F060000CD
:100170003E7F415D5D1F1E007C7E13137E7C000070
:10018000417F7F49497F36001C3E63414163220025
:10019000417F7F41637F1C00417F7F495D41630058
:1001A000417F7F491D0103001C3E63415173720072
:1001B0007F7F08087F7F000000417F7F41000000B3
:1001C000307040417F3F0100417F7F081C77630012
:1001D000417F7F41406070007F7F060C067F7F007B
:1001E0007F7F060C187F7F001C3E6341633E1C002E
:1001F000417F7F49090F06001E3F21717F5E00008D
:10020000417F7F19396F460026674D597B320000C8
:1002100003417F7F410300007F7F40407F7F0000DC
:100220001F3F60603F1F00007F7F3018307F7F00DE
:1002300063771C081C776300074F78784F0700002E
:100240006773594D47637100007F7F414100000093
:100250000103060C183060000041417F7F00000060
:10026000080C0603060C0800808080808080808057
:100270000000030704000000207454543C78400040
:10028000413F7F44447C3800387C44446C28000063
:10029000307848493F7F4000387C54545C18000057
:1002A000487E7F490302000098BCA4A4F87C0400A7
:1002B000417F7F08047C780000447D7D4000000081
:1002C00040C484FD7D000000417F7F10386C4400F5
:1002D00000417F7F400000007C7C0C180C7C780083
:1002E0007C7C04047C780000387C44447C3800002A
:1002F00084FCF8A4243C1800183C24A4F8FC8400D6
:10030000447C78441C180000485C54547424000059
:1003100000043E7F442400003C7C40403C7C400084
:100320001C3C60603C1C00003C7C6030607C3C00FD
:10033000446C3810386C44009CBCA0A0FC7C0000CD
:100340004C64745C4C64000008083E774141000036
:1003500000000077770000004141773E0808000068
:10036000020301030203010011241FBECFEFD4E0FA
:10037000DEBFCDBF11E0A0E0B1E0EEE0FDE002C0E5
:1003800005900D92A433B107D9F721E0A4E3B1E0C1
:1003900001C01D92A534B207E1F70E948D020C94B2
:1003A00085060C9400008068E0E0F4E180838BEE29
:1003B00091E00197F1F700C0808190E0089580E01E
:1003C00090E00E94D301909338018093370181E03F
:1003D00090E00E94D30190933A01809339010895EF
:1003E0000F931F93FC01E61BF70B021B130BE09FFF
:1003F000C001E19F900DF09F900D1124FA01E61BC2
:10040000F70BBF010E94CE04C901860F971F1F91F1
:100410000F910895CF92DF92EF92FF920F931F9367
:1004200080E090E00E94D3012091370130913801A3
:100430008217930774F4409137015091380100E01E
:1004400010E02CE93FEF61E070E00E94F0016C01E8
:100450000DC0609137017091380104E610E020E092
:1004600030E04FEF50E00E94F0016C0181E090E03D
:100470000E94D3012091390130913A0182179307EC
:1004800074F44091390150913A0100E010E02CE9F8
:100490003FEF61E070E00E94F0017C010DC06091CF
:1004A000390170913A0104E610E020E030E04FEFAE
:1004B00050E00E94F0017C01C701B6011F910F912D
:1004C000FF90EF90DF90CF900895CF93DF93D0E02F
:1004D000C0E00E940A029B012C593F4F2A3531058A
:1004E00010F4D1E007C09B012B5031092A353105AA
:1004F00008F4D2E09C012B5031092A35310510F463
:10050000C1E006C08C599F4F8A35910508F4C2E0BE
:100510008D2F9C2FDF91CF91089578940E94A8048D
:100520000E94C7040E94DF010E9494030E94F90305
:100530008FEF0E94110487B38D7F87BB88B38260E1
:1005400088BB0E94A9020E94DB020E94440386B37A
:10055000F8CF8091060190910701019699F448E047
:1005600060E089E091E00E944F0448E061E08FE0A4
:1005700091E00E944F0448E062E08AE191E00E942D
:100580004F0408958091350190913601019691F4C0
:1005900048E060E082E291E00E944F0448E061E0C0
:1005A00087E291E00E944F0448E062E08EE291E031
:1005B0000E944F040895CF93C0913401809134017B
:1005C00060E00E9477040E9465029130A9F48111D5
:1005D00013C020913401222379F08091340181509D
:1005E000809334012FEF8FE794E0215080409040BA
:1005F000E1F700C000003FC0913091F4811110C0BC
:100600002091340121110CC0109234012FEF8FE79B
:1006100094E0215080409040E1F700C000002BC0E2
:100620009230A9F4811113C020913401233078F461
:10063000809134018F5F809334012FEF8FE794E036
:10064000215080409040E1F700C0000014C092307B
:1006500091F4811110C080913401823061F483E003
:10066000809334012FEF8FE794E021508040904039
:10067000E1F700C0000080913401C81719F08C2FF9
:100680000E948604CF9108950E9465022091350151
:10069000309136013323F4F0909134019130D1F44C
:1006A0008230C1F40E94F9038FEF9FEF90933601DF
:1006B0008093350110920701109206012FEF8FE70A
:1006C00094E0215080409040E1F700C000000E947B
:1006D000A902089520910601309107013323ECF01F
:1006E000909134019130C9F48130B9F40E94F9033A
:1006F00010923601109235018FEF9FEF9093070112
:10070000809306012FEF8FE794E0215080409040C6
:10071000E1F700C000000E94A90208958093001034
:1007200008958093001208958EEA0E948E0381EA54
:100730000E948E0382E10E948E0388EC0E948E0349
:1007400088EA0E948E038FE30E948E0385ED0E944B
:100750008E0380E80E948E0381E80E948E0380E56C
:100760000E948E0389ED0E948E0381E20E948E0317
:1007700080E20E948E0382E00E948E038BED0E9435
:100780008E0380E30E948E038DEA0E948E0380E038
:100790000E948E0384EA0E948E0386EA0E948E03E2
:1007A0008FEA0E948E03089580550E948E0308955B
:1007B000CF93C82F8F700E948E038C2F82958F70DD
:1007C000805F0E948E03CF910895CF93DF930E94A4
:1007D000D403C0E0D0E007C08C2F0E94D80380E093
:1007E0000E9491032196CF37D105B4F3DF91CF91C9
:1007F0000895CF93DF93C0E0D0E004C08C2F0E9417
:10080000E5032196C830D105CCF3DF91CF9108954F
:10081000CF93C62F0E94D4038C2F0E94D803CF9170
:100820000895CF93C82F81E80E948E038C2F0E94D9
:100830008E03CF910895DF92EF92FF920F931F9353
:10084000CF93DF93D82ED62FE42EF12C87011AC038
:10085000ED2DF0E0B097C8018E199F09EE0FFF1F34
:10086000EE0FFF1FEE0FFF1FE80FF91FE059FF4FBC
:10087000C491602F8D2F0E9408048C2F0E94910339
:100880000F5F1F4FC7010896081719070CF3DF9178
:10089000CF911F910F91FF90EF90DF900895EF920D
:1008A000FF920F931F93CF93DF938C01E62EF42ECC
:1008B000C0E0D0E00BC0F801EC0FFD1F4F2D6E2DF6
:1008C00080810E941B0488E0F80E2196F8010190B7
:1008D0000020E9F73197E01BF10BCE17DF0758F343
:1008E000DF91CF911F910F91FF90EF9008950E949B
:1008F000080488E10E9491038EE70E9491038CE333
:100900000E94910388E10E9491030895CF93DF93A1
:100910000E94D403C0E0D0E007C08C2F0E94D8030F
:1009200080E00E9491032196C530D105B4F3DF9198
:10093000CF910895909108019923E1F31092080155
:100940008CB980E090E008955F9BFECF8CB1089554
:1009500010BC8FE189B98AB188658AB980B58E6883
:1009600080BD64EA74E08AE994E00E94F604089588
:100970001F920F920FB60F9211248F9381E08093F4
:1009800008018F910F900FBE0F901F90189585B79B
:10099000806885BF80B7806280BF089597FB072E6F
:1009A00016F4009407D077FD09D00E94E20407FCFA
:1009B00005D03EF4909581959F4F0895709561956F
:1009C0007F4F0895AA1BBB1B51E107C0AA1FBB1F85
:1009D000A617B70710F0A61BB70B881F991F5A95CB
:1009E000A9F780959095BC01CD0108950F931F93B1
:1009F000CF93DF93009731F46115710519F480E00E
:100A000090E03AC08B01EC016EE070E081E090E094
:100A10000E944105FC01892B91F380E88383011535
:100A2000110571F01387028781E8838380913B0170
:100A300090913C01892B21F4F0933C01E0933B0120
:100A40002097C9F0D187C08783818260838380919A
:100A50003D0190913E01892B71F4F0933E01E093AA
:100A60003D0180913F0190914001892B21F4F09349
:100A70004001E0933F01CF01DF91CF911F910F9192
:100A800008950F931F93CF93DF93869F8001879FD5
:100A9000100D969F100D1124C8010E945D05EC01F8
:100AA000009729F0A80160E070E00E947E06CE0168
:100AB000DF91CF911F910F9108950F931F93CF93C3
:100AC000DF938230910510F482E090E0E0914301E1
:100AD000F091440120E030E0A0E0B0E0309719F15F
:100AE000408151810281138148175907C8F084174A
:100AF000950769F4109731F012960C93129713969C
:100B00001C9327C0009343011093440122C0211578
:100B1000310519F04217530718F49A01BD01EF018E
:100B2000DF01F801DBCF21153105F9F0281B390B66
:100B30002430310580F48A819B816115710521F093
:100B4000FB019383828304C090934401809343010B
:100B5000FE01329644C0FE01E20FF31F8193919390
:100B600022503109398328833AC0209141013091C4
:100B70004201232B41F42091020130910301309373
:100B80004201209341012091000130910101211582
:100B9000310541F42DB73EB7409104015091050154
:100BA000241B350BE0914101F0914201E217F3075C
:100BB000A0F42E1B3F0B2817390778F0AC014E5FCD
:100BC0005F4F2417350748F04E0F5F1F50934201C7
:100BD000409341018193919302C0E0E0F0E0CF01A6
:100BE000DF91CF911F910F910895CF93DF930097DD
:100BF00009F481C0FC01329713821282A091430153
:100C0000B0914401109781F420813181820F931FAC
:100C100020914101309142012817390751F5F09395
:100C20004201E093410167C0ED0120E030E0CE17C2
:100C3000DF0740F44A815B819E0141155105F1F0C7
:100C4000EA01F5CFD383C28340815181840F951F80
:100C5000C817D90759F488819981840F951F029686
:100C6000918380838A819B819383828321153105BF
:100C700029F4F0934401E09343013DC0E901FB8373
:100C8000EA8349915991C40FD51FEC17FD0761F410
:100C900080819181840F951F0296E9019983888351
:100CA000828193819B838A83E0E0F0E012968D91AC
:100CB0009C911397009719F0FD01DC01F7CF8D91FE
:100CC0009C9111979D012E5F3F4F820F931F2091A2
:100CD0004101309142012817390769F4309729F40E
:100CE000109244011092430102C013821282B09309
:100CF0004201A0934101DF91CF910895DC0101C031
:0E0D00006D9341505040E0F70895F894FFCFF6
:100D0E00000045012000FFFF01537461727400441E
:100D1E006966666963756C74790052657374617285
:100D2E00740045617379004D656469756D004861A5
:040D3E0072640000DB
:00000001FF
