S01700004763634170706C69636174696F6E312E737265635B
S11300000C9438000C9455000C9455000C94550035
S11300100C9455000C9455000C9455000C94550008
S11300200C9455000C9455000C9455000C945500F8
S11300300C9455000C9455000C9455000C945500E8
S11300400C9455000C9455000C9455000C945500D8
S11300500C9455000C9455000C9455000C945001CC
S11300600C9455000C9455000C9455000C945500B8
S113007011241FBECFEFD4E0DEBFCDBF11E0A0E05E
S1130080B1E0EEEEF5E002C005900D92AA30B107A2
S1130090D9F721E0AAE0B1E001C01D92A831B2076E
S11300A0E1F70E947B000C94F5020C940000806838
S11300B0E0E0F4E180838BEE91E00197F1F700C07A
S11300C0808190E0089580E090E00E945700909332
S11300D00B0180930A0181E090E00E945700909305
S11300E00D0180930C01089587B38D7F87BB88B37E
S11300F0826088BB089578940E9440010E945F0149
S11301000E9463000E9474000E94A1000E940601E4
S11301108FEF0E9415010E941F0187E091E00E9469
S11301202D012FEF8FE791E0215080409040E1F7BF
S113013000C000C0F2CF8093001008958093001295
S113014008958EEA0E949B0081EA0E949B0082E14E
S11301500E949B0088EC0E949B0088EA0E949B00FE
S11301608FE30E949B0085ED0E949B0080E80E9423
S11301709B0081E80E949B0080E50E949B0089ED22
S11301800E949B0081E20E949B0080E20E949B00EF
S113019082E00E949B008BED0E949B0080E30E9402
S11301A09B008DEA0E949B0080E00E949B0084EAF1
S11301B00E949B0086EA0E949B008FEA0E949B009B
S11301C0089580550E949B000895CF93C82F8F7087
S11301D00E949B008C2F82958F70805F0E949B00F1
S11301E0CF910895CF93DF930E94E100C0E0D0E067
S11301F007C08C2F0E94E50080E00E949E0021969B
S1130200C038D105B4F3DF91CF910895CF93DF9334
S1130210C0E0D0E004C08C2F0E94F2002196C830C8
S1130220D105CCF3DF91CF910895CF93C82F81E806
S11302300E949B008C2F0E949B00CF91089587B34E
S113024087BB87B38F7B87BB88B3806188BB8DB145
S11302508DB98EB18E7F8EB908958FB9779BFECFFD
S11302608FB10895909106019923E1F3109206014C
S11302708CB980E090E008955F9BFECF8CB1089527
S113028010BC8FE189B98AB188658AB980B58E6856
S113029080BD6CE371E082E391E00E946601089501
S11302A01F920F920FB60F9211248F9381E08093C7
S11302B006018F910F900FBE0F901F90189585B770
S11302C0806885BF80B7806280BF08950F931F93B5
S11302D0CF93DF93009731F46115710519F480E031
S11302E090E03AC08B01EC016EE070E081E090E0B8
S11302F00E94B101FC01892B91F380E883830115ED
S1130300110571F01387028781E8838380910E01C0
S113031090910F01892B21F4F0930F01E0930E01CA
S11303202097C9F0D187C0878381826083838091BD
S1130330100190911101892B71F4F0931101E09354
S113034010018091120190911301892B21F4F093F3
S11303501301E0931201CF01DF91CF911F910F910F
S113036008950F931F93CF93DF93869F8001879FF8
S1130370100D969F100D1124C8010E94CD01EC01AF
S1130380009729F0A80160E070E00E94EE02CE011F
S1130390DF91CF911F910F9108950F931F93CF93E6
S11303A0DF938230910510F482E090E0E091160131
S11303B0F091170120E030E0A0E0B0E0309719F1AF
S11303C0408151810281138148175907C8F084176D
S11303D0950769F4109731F012960C9312971396BF
S11303E01C9327C0009316011093170122C02115F6
S11303F0310519F04217530718F49A01BD01EF01B2
S1130400DF01F801DBCF21153105F9F0281B390B89
S11304102430310580F48A819B816115710521F0B6
S1130420FB019383828304C0909317018093160188
S1130430FE01329644C0FE01E20FF31F81939193B3
S113044022503109398328833AC020911401309114
S11304501501232B41F420910201309103013093C3
S113046015012093140120910001309101012115FF
S1130470310541F42DB73EB7409104015091050177
S1130480241B350BE0911401F0911501E217F307D9
S1130490A0F42E1B3F0B2817390778F0AC014E5FF0
S11304A05F4F2417350748F04E0F5F1F5093150117
S11304B0409314018193919302C0E0E0F0E0CF01F6
S11304C0DF91CF911F910F910895CF93DF93009700
S11304D009F481C0FC01329713821282A0911601A3
S11304E0B0911701109781F420813181820F931FFD
S11304F020911401309115012817390751F5F09313
S11305001501E093140167C0ED0120E030E0CE173F
S1130510DF0740F44A815B819E0141155105F1F0EA
S1130520EA01F5CFD383C28340815181840F951FA3
S1130530C817D90759F488819981840F951F0296A9
S1130540918380838A819B819383828321153105E2
S113055029F4F0931701E09316013DC0E901FB83F0
S1130560EA8349915991C40FD51FEC17FD0761F433
S113057080819181840F951F0296E9019983888374
S1130580828193819B838A83E0E0F0E012968D91CF
S11305909C911397009719F0FD01DC01F7CF8D9121
S11305A09C9111979D012E5F3F4F820F931F2091C5
S11305B01401309115012817390769F4309729F48B
S11305C0109217011092160102C013821282B09386
S11305D01501A0931401DF91CF910895DC0101C0AE
S11105E06D9341505040E0F70895F894FFCF1A
S10D05EE000018012000014800007D
S9030000FC
