S00C0000506F6E672E7372656384
S11300000C9438000C944A000C944A000C944A0056
S11300100C944A000C944A000C944A000C944A0034
S11300200C944A000C944A000C944A000C944A0024
S11300300C944A000C944A000C944A000C944A0014
S11300400C944A000C944A000C944A000C94B60098
S11300500C944A000C944A000C944A000C94FD0041
S11300600C944A000C944A000C944A000C944A00E4
S113007011241FBECFEFD4E0DEBFCDBF21E0A0E04E
S1130080B1E001C01D92A437B207E1F70E944C0011
S11300900C942A010C9400000E94650088E40E94DC
S11300A0AC002FEF8FE791E0215080409040E1F7C2
S11300B000C000C0F3CFFC0171836083538342838B
S11300C01582148217821682089510BC8FE189B9B3
S11300D01BB888EF8AB98EE880BD42E350E062E441
S11300E071E08AE391E00E945B0042E350E060E04B
S11300F071E082E391E00E945B000895FC01248199
S11301003581828193812817390711F080E00895A1
S113011081E00895FC0184819581892B11F080E0B0
S1130120089581E008951F93CF93DF93EC01162F78
S11301300E947E0081110CC0E881F9818C819D812F
S1130140E80FF91F10838C819D8101969D838C8318
S1130150DF91CF911F9108955D9B02C08CB90895E2
S1130160682F82E391E00E94930008951F920F92FA
S11301700FB60F9211242F933F934F935F936F9376
S11301807F938F939F93AF93BF93EF93FF936CB140
S11301908AE391E00E949300FF91EF91BF91AF91A8
S11301A09F918F917F916F915F914F913F912F918B
S11301B00F900FBE0F901F901895CF93DF93EC0113
S11301C00E948A00811115C0E881F9812E813F8146
S11301D0E20FF31F80812F5F3F4F3F832E834C81BB
S11301E05D812417350731F41F821E821D821C8213
S11301F001C080E0DF91CF9108951F920F920FB656
S11302000F9211242F933F934F935F936F937F9398
S11302108F939F93AF93BF93EF93FF9382E391E008
S11302200E948A00811105C082E391E00E94DD00F2
S11302308CB9FF91EF91BF91AF919F918F917F9175
S11302406F915F914F913F912F910F900FBE0F903F
S10B02501F901895F894FFCFEC
S9030000FC
