S00C0000506F6E672E7372656384
S11300000C9438000C9455000C9455000C94550035
S11300100C9455000C9455000C9455000C94550008
S11300200C9455000C9455000C9455000C945500F8
S11300300C9455000C9455000C9455000C945500E8
S11300400C9455000C9455000C9455000C94CD0060
S11300500C9455000C9455000C9455000C94190103
S11300600C9455000C9455000C9455000C945500B8
S113007011241FBECFEFD4E0DEBFCDBF11E0A0E05E
S1130080B1E0E4EFFBE002C005900D92A032B107AD
S1130090D9F721E0A0E2B1E001C01D92AE39B20768
S11300A0E1F70E9457000C94F8050C9400000E949C
S11300B07600789486E091E09F938F930E94CF011D
S11300C00F900F9080919401909195010E9491015D
S11300D099270E94E501F6CFFC0171836083538365
S11300E042831582148217821682089510BC8FE110
S11300F089B91BB888ED8AB98EE880BD42E350E027
S113010062E671E08AE591E00E946C0042E350E00F
S113011060E271E082E591E00E946C0064E171E0CC
S113012083EC90E00E9446010895FC01248135810E
S1130130828193812817390711F080E0089581E0C6
S11301400895FC0184819581892B11F080E0089544
S113015081E008951F93CF93DF93EC01162F0E9443
S1130160950081110CC0E881F9818C819D81E80F93
S1130170F91F10838C819D8101969D838C83DF916F
S1130180CF911F9108955D9B02C08CB90895682F8B
S113019082E591E00E94AA0008951F920F920FB683
S11301A00F9211242F933F934F935F936F937F93F9
S11301B08F939F93AF93BF93EF93FF936CB18AE5B3
S11301C091E00E94AA00FF91EF91BF91AF919F919E
S11301D08F917F916F915F914F913F912F910F90EC
S11301E00FBE0F901F901895CF93DF93EC010E94E0
S11301F0A100811115C0E881F9812E813F81E20FB0
S1130200F31F80812F5F3F4F3F832E834C815D819D
S11302102417350731F41F821E821D821C8201C0FF
S113022080E0DF91CF9108958AE591E00E94F40087
S113023008951F920F920FB60F9211242F933F939C
S11302404F935F936F937F938F939F93AF93BF93DA
S1130250EF93FF9382E591E00E94A100811105C014
S113026082E591E00E94F4008CB9FF91EF91BF9177
S1130270AF919F918F917F916F915F914F913F913A
S11302802F910F900FBE0F901F9018950F931F93EF
S1130290CF93DF93009731F46115710519F480E071
S11302A090E03AC08B01EC016EE070E081E090E0F8
S11302B00E94CD03FC01892B91F380E8838301150F
S11302C0110571F01387028781E88383809194017B
S11302D090919501892B21F4F0939501E093940179
S11302E02097C9F0D187C0878381826083838091FE
S11302F0960190919701892B71F4F0939701E09303
S113030096018091980190919901892B21F4F093A1
S11303109901E0939801CF01DF91CF911F910F9143
S11303200895CF93DF93EC012B8120FF33C026FF88
S11303300AC02F7B2B838E819F8101969F838E839E
S11303408A8190E029C022FF0FC0E881F981808171
S1130350082E000C990B009719F420622B831AC005
S11303603196F983E8830EC0EA85FB85099597FFEA
S113037009C02B81019611F080E201C080E1822B3B
S11303808B8308C02E813F812F5F3F4F3F832E8395
S1130390992702C08FEF9FEFDF91CF910895A0E0DE
S11303A0B0E0E5EDF1E00C94D105AE014B5F5F4F99
S11303B0FA0161917191AF01809196019091970139
S11303C00E94EC01E2E00C94ED05609196017091BD
S11303D097010E9427050895ABE0B0E0E2EFF1E059
S11303E00C94C1056C017B018A01FC011782168201
S11303F0838181FFCCC1CE0101963C01F60193813A
S1130400F70193FD859193FF81917F01882309F47E
S1130410BAC1853239F493FD859193FF81917F01AF
S1130420853229F4B60190E00E942705E7CF912C8C
S1130430212C312CFFE1F315D8F08B3279F038F40C
S1130440803279F08332A1F4232D20611DC08D32D6
S113045061F0803369F4232D216016C0832D8260FE
S1130460382EE32DE4603E2E2AC0F32DF8601DC023
S113047037FC2DC020ED280F2A3040F08E32B9F41D
S113048036FC81C1232D2064322E19C036FE06C0ED
S11304908AE0989E200D1124922E11C0EAE02E9E2F
S11304A0200D1124222EF32DF0623F2E08C08C362D
S11304B021F4832D8068382E02C0883641F4F70178
S11304C093FD859193FF81917F018111B3CF982F83
S11304D09F7D9554933028F40C5F1F4F9FE39983BD
S11304E00DC0833631F0833771F0833509F059C07C
S11304F021C0F801808189830E5F1F4F8824839473
S1130500912C530113C02801F2E04F0E511CF80145
S1130510A080B18036FE03C0692D70E002C06FEF89
S11305207FEFC5010E941C054C018201F32DFF776A
S11305303F2E16C0280122E0420E511CF801A08073
S1130540B18036FE03C0692D70E002C06FEF7FEF0B
S1130550C5010E940A054C01F32DF0683F2E82016B
S113056033FC1BC0822D90E088169906B0F4B601C6
S113057080E290E00E9427052A94F4CFF50137FC2D
S1130580859137FE81915F01B60190E00E942705B5
S113059021102A9421E0821A91088114910471F7A0
S11305A0E8C0843611F0893641F5F80137FE07C0FA
S11305B060817181828193810C5F1F4F08C06081CB
S11305C07181072E000C880B990B0E5F1F4FF32DC2
S11305D0FF763F2E97FF09C09095809570956195A1
S11305E07F4F8F4F9F4FF0683F2E2AE030E0A301EA
S11305F00E946305882E861845C0853731F4232D63
S11306002F7EB22E2AE030E025C0932D997FB92E9B
S11306108F36C1F018F4883579F0B5C0803719F0F9
S1130620883721F0B0C0E92FE061BE2EB4FE0DC0C2
S1130630FB2DF460BF2E09C034FE0AC0292F2660AA
S1130640B22E06C028E030E005C020E130E002C050
S113065020E132E0F801B7FE07C060817181828138
S113066093810C5F1F4F06C06081718180E090E030
S11306700E5F1F4FA3010E946305882E8618FB2D71
S1130680FF773F2E36FE0DC0232D2E7FA22E891418
S113069058F434FE0BC032FC09C0832D8E7EA82E84
S11306A005C0B82CA32C03C0B82C01C0B92CA4FEDF
S11306B00FC0FE01E80DF11D8081803321F49A2DD5
S11306C0997EA92E09C0A2FE06C0B394B39404C0B7
S11306D08A2D867809F0B394A3FC11C0A0FE06C04D
S11306E0B21488F4280C922C9B180EC0B21460F437
S11306F0B60180E290E00E942705B394F7CFB214CC
S113070018F42B1802C0982C212CA4FE10C0B6019A
S113071080E390E00E942705A2FE17C0A1FC03C05D
S113072088E790E002C088E590E0B6010CC08A2D0D
S1130730867859F0A1FE02C08BE201C080E2A7FCDA
S11307408DE2B60190E00E942705891438F4B601C1
S113075080E390E00E9427059A94F7CF8A94F301EE
S1130760E80DF11D8081B60190E00E9427058110FB
S1130770F5CF222009F442CEB60180E290E00E9437
S113078027052A94F6CFF6018681978102C08FEF60
S11307909FEF2B96E2E10C94DD050F931F93CF930B
S11307A0DF93869F8001879F100D969F100D112463
S11307B0C8010E94E903EC01009729F0A80160E058
S11307C070E00E941505CE01DF91CF911F910F912A
S11307D008950F931F93CF93DF938230910510F404
S11307E082E090E0E0919C01F0919D0120E030E0F6
S11307F0A0E0B0E0309719F140815181028113816A
S113080048175907C8F08417950769F4109731F011
S113081012960C93129713961C9327C000939C0175
S113082010939D0122C02115310519F04217530779
S113083018F49A01BD01EF01DF01F801DBCF2115A6
S11308403105F9F0281B390B2430310580F48A81F5
S11308509B816115710521F0FB019383828304C0A0
S113086090939D0180939C01FE01329644C0FE0149
S1130870E20FF31F81939193225031093983288326
S11308803AC020919A0130919B01232B41F420918D
S113089002013091030130939B0120939A0120912E
S11308A00001309101012115310541F42DB73EB706
S11308B04091040150910501241B350BE0919A01EC
S11308C0F0919B01E217F307A0F42E1B3F0B2817AE
S11308D0390778F0AC014E5F5F4F2417350748F0B5
S11308E04E0F5F1F50939B0140939A018193919304
S11308F002C0E0E0F0E0CF01DF91CF911F910F91B2
S11309000895CF93DF93009709F481C0FC013297D7
S113091013821282A0919C01B0919D01109781F4E1
S113092020813181820F931F20919A0130919B0184
S11309302817390751F5F0939B01E0939A0167C09A
S1130940ED0120E030E0CE17DF0740F44A815B81FF
S11309509E0141155105F1F0EA01F5CFD383C2831D
S113096040815181840F951FC817D90759F4888194
S11309709981840F951F0296918380838A819B813C
S1130980938382832115310529F4F0939D01E0932B
S11309909C013DC0E901FB83EA8349915991C40F4D
S11309A0D51FEC17FD0761F480819181840F951F99
S11309B00296E90199838883828193819B838A8348
S11309C0E0E0F0E012968D919C911397009719F056
S11309D0FD01DC01F7CF8D919C9111979D012E5F54
S11309E03F4F820F931F20919A0130919B0128174A
S11309F0390769F4309729F410929D0110929C01F3
S1130A0002C013821282B0939B01A0939A01DF91DA
S1130A10CF910895FC010590615070400110D8F702
S1130A20809590958E0F9F1F0895DC0101C06D93F2
S1130A3041505040E0F70895FC016150704001902E
S1130A400110D8F7809590958E0F9F1F08950F93EE
S1130A501F93CF93DF93FB01238121FD03C08FEF0D
S1130A609FEF2CC022FF16C0468157812481358117
S1130A704217530744F4A081B1819D012F5F3F4F7A
S1130A80318320838C93268137812F5F3F4F3783B7
S1130A90268314C08B01EC01FB010084F185E02D59
S1130AA00995892BE1F6D80116968D919C9117979B
S1130AB0019617969C938E931697CE01DF91CF9152
S1130AC01F910F910895FA01AA27283051F120317E
S1130AD081F1E8946F936E7F6E5F7F4F8F4F9F4FCE
S1130AE0AF4FB1E03ED0B4E03CD0670F781F891F10
S1130AF09A1FA11D680F791F8A1F911DA11D6A0FDE
S1130B00711D811D911DA11D20D009F468943F9190
S1130B102AE0269F11243019305D3193DEF6CF018F
S1130B200895462F4770405D4193B3E00FD0C9F755
S1130B30F6CF462F4F70405D4A3318F0495D31FDC2
S1130B404052419302D0A9F7EACFB4E0A695979515
S1130B50879577956795BA95C9F7009761057105EB
S1130B6008959B01AC010A2E069457954795379535
S1130B702795BA95C9F7620F731F841F951FA01D8F
S1130B8008952F923F924F925F926F927F928F922D
S1130B909F92AF92BF92CF92DF92EF92FF920F9308
S1130BA01F93CF93DF93CDB7DEB7CA1BDB0B0FB612
S1130BB0F894DEBF0FBECDBF09942A8839884888CF
S1130BC05F846E847D848C849B84AA84B984C88465
S1130BD0DF80EE80FD800C811B81AA81B981CE0F5C
S1130BE0D11D0FB6F894DEBF0FBECDBFED01089541
S1070BF0F894FFCFA3
S1130BF400009E01200048656C6C6F2120536572CF
S1130C0469616C20497320776F726B696E670000A9
S9030000FC
