:0200000280007C
:10000000C00800204D030800490308004903080008
:1000100049030800490308004903080000000000E4
:10002000000000000000000000000000490308007C
:1000300049030800000000004903080049030800C4
:100040004903080049030800490308004903080060
:100050004903080049030800490308004903080050
:10006000C10A080049030800000000004903080015
:100070004903080049030800490308000000000084
:100080000000000049030800490308004903080074
:100090004903080049030800490308004903080010
:1000A0004903080000000000490308004903080054
:1000B00049030800490308004903080049030800F0
:1000C00049030800490308004903080049030800E0
:1000D00049030800490308004903080049030800D0
:1000E000490308004903080049030800D902080031
:1000F0004903080010B5054C237833B9044B13B1FC
:100100000448AFF300800123237010BD34040020A5
:1001100000000000300E08000C4B43B10C4810B535
:100120000C49AFF300800C48036823B910BD0A489E
:10013000036833B97047094B002BF7D0BDE8104076
:100140001847064B002BF5D0184700BF00000000F1
:10015000300E080038040020300E080000000000B7
:10016000F0B45718082FD4BF00230123082998BFE3
:10017000082A5CD80D46002B59D12E4A136823F06B
:100180000103136013692C4B4FF440745C641C6FC3
:1001900024F003041C6703245C605C66A3F5006321
:1001A000264CC3F80C41D3F8004144F40064C3F872
:1001B00000415061002419E01E4801F110035B0169
:1001C000C2180026566000EB41124FF00056C2F8EC
:1001D00008624FF08076C650D2F81C3243F4000318
:1001E000C2F81C3201238B401C430131B942E3DDCC
:1001F00000230DE00F4901EB43124FF00050C2F80D
:10020000080203F1100252014FF040708850013390
:10021000AB42EFDB074B5C604FF40061084A516072
:100220001A6842F001021A600020F0BC70470120F9
:10023000FBE700BF00400B40000E0E402B100010EB
:1002400000E100E008B502220121014B984708BDFA
:10025000610108004B0103F1402303F53023D3F87B
:10026000103213F4000F33D070B44B0103F140236C
:1002700003F53023D3F81442D3F81822D3F80852E8
:10028000C5F38A450580D3F81052C5F30345857040
:10029000002303E0C618F270120A0133AB4205DAFC
:1002A000032BF7DCC618F470240AF6E7094B01F1BA
:1002B000100252014FF08070985003EB4111D1F8B9
:1002C0001C3243F40003C1F81C32002070BC70479C
:1002D0000120704700400B4010B584B0154B1C69DD
:1002E00014F0060F19D014F0020F08D114F0040F07
:1002F0000AD0022101A8104B9847002309E00121F0
:1003000001A80D4B9847F8E70C480D4B9847F4E7C8
:1003100001339DF806209342FADB14F0010F02D05E
:100320000122044B9A604FF40062064BC3F884210B
:1003300004B010BD00400B40550208004C0D0800F1
:100340001908080000E100E0FEE7000008B5114BC5
:10035000114A9A4209D00F4B0F4A03E01168196005
:10036000043304320D498B42F8D30D4B02E00022D6
:100370001A6004330B4A9342F9D30B4B23F06043CA
:1003800023F07F03094A9360094B9847094B98472C
:10039000FEE700BF00000020300E080034040020FB
:1003A00034040020C00400200000080000ED00E03C
:1003B000290B08005D0408004FF48063204A136095
:1003C00002F5007213601F4B1B6A13F0807F07D188
:1003D0001D4A1C4B1A621B4B9B6E13F0010FFAD087
:1003E0001A4A184B1A62174B9B6E13F4803FFAD0CF
:1003F000144A136B23F0030343F001031363114BFF
:100400009B6E13F0080FFAD0114A0E4B9A620D4BF7
:100410009B6E13F0020FFAD011220A4B1A63094B9C
:100420009B6E13F0080FFAD01222064B1A63054B8D
:100430009B6E13F0080FFAD0064A074B1A607047FC
:10044000000A0E4000060E4009083700090837016F
:10045000013F0D2000BD01050000002000B587B060
:10046000344B9847344A536843F400435360A2F531
:10047000A252103AD2F8E43023F00103C2F8E4307B
:100480002E4B98472E4B98472E4B98472E4B98470C
:100490002E4B98472E482F4B984700222E4B1A7010
:1004A00015E02E4A13780133DBB2137001212A4B79
:1004B000197011782A482B4B98472CE09DF90F00B2
:1004C000294B98479DF90F102848264B9847002143
:1004D00003A8274B98470A2269469DF90F00254C2F
:1004E000A0470A2269469DF91000A047012103A8F0
:1004F000214B9847214C23889BB2214A1380214BE2
:100500009847208023889BB2B3F5967F03D2124B85
:100510001B78002BC5D0194B1B889BB2B3F57A7F93
:10052000CCD90D4B1B78002BC8D000220A4B1A7077
:10053000C4E700BFB9030800501A0E4005090800BF
:10054000350A08002D0908003D0808007D0808004C
:1005500065012900450208005404002050040020D1
:10056000780D080019080800DD080800940D08003F
:1005700055020800A90B0800B50908005204002024
:10058000560400207108080008B5C8B2014B98470E
:1005900008BD00BF9D0A08002DE9F04107460E4640
:1005A000151E02DD0A46002104E04FF020080EE08F
:1005B0000131013210780028FAD1A94201DA6D1A0E
:1005C00000E0002513F0020F06D14FF0200813F0D1
:1005D00001040AD0002410E04FF03008F7E741464C
:1005E00038460D4B98470134013D002DF7DC04E0FF
:1005F0003846094B98470134013631780029F7D144
:1006000005E041463846044B98470134013D002D32
:10061000F7DC2046BDE8F08189050800F0B585B01B
:1006200007460C9851B11E460C4613B10A2A12D047
:10063000002604AD002305F8013D18E030238DF8B5
:10064000043000238DF805300B9B0A9A01A9384627
:100650001B4CA04729E0002901DB0026E9E74C42BA
:100660000126E6E7303305F8013DB4FBF2F44CB166
:10067000B4FBF2F302FB1343092BF3DDA0F13A01C3
:100680000B44EFE756B10A9B1BB10B9B13F0020F13
:100690000DD12D2305F8013C013D00260B9B0A9A44
:1006A00029463846064CA047304405B0F0BD2D2100
:1006B0003846044B98470A9B013B0A93EEE700BF7C
:1006C0009905080089050800F0B589B006460C4672
:1006D0000592002581E0A21C01238BE0013443F048
:1006E00002032278302AF9D0002206E002EB8202CF
:1006F0005000A1F13002024401342178A1F1300010
:10070000C0B20928F2D9732918D0642922D07829D7
:100710002FD058293CD0752949D063295CD105993F
:10072000081D059009788DF81C1000218DF81D100A
:1007300007A93046344FB84705444DE00599081DD8
:100740000590096821B130462F4FB847054443E072
:100750002E49F8E70599081D059009686120029067
:100760000193009201230A223046294FB8470544DD
:1007700032E00599081D05900968612002900193F7
:100780000092002310223046214FB847054423E051
:100790000599081D05900968412002900193009277
:1007A0000023102230461A4FB847054414E005993B
:1007B000081D0590096861200290019300920023B2
:1007C0000A223046124FB847054405E01446217806
:1007D0003046104B984701350134237863B1252BFF
:1007E000F5D1621C63783BB1252BEFD02D2B3FF464
:1007F00072AF0023144674E716B1336800221A70F2
:10080000284609B0F0BD00BF99050800A40D0800F6
:100810001D060800890508000FB400B583B004AABE
:1008200052F8041B01920020034B984703B05DF877
:1008300004EB04B0704700BFC90608000A4AD2F8AA
:10084000003143F02003C2F80031084B5A6842F0EF
:1008500080025A601A6942F001021A611A6842F075
:1008600002021A60704700BF00060E4000000C40F4
:10087000014B186D80B2704700000C40074AD2F857
:10088000003143F04003C2F80031054B5968054A76
:100890000A435A6002221A61704700BF00060E40E8
:1008A00000800C401000211008B50146024B186270
:1008B0000248034B984708BD00800C40AC0D08006F
:1008C0001908080010B4401A019CE41A04FB00F057
:1008D000521AB0FBF2F0184410BC704710B582B049
:1008E00064304FF0FF3300930023C8221946C0B292
:1008F000024CA047024B984702B010BDC508080043
:10090000A9080800074AD2F80C3143F08053C2F816
:100910000C31054B4FF4C0121A601A615A631A6306
:10092000704700BF00060E40000E0E40184AD2F875
:10093000003143F01003C2F80031164B1A6F42F435
:1009400000221A675A6842F400225A60124B1A6851
:1009500042F02A021A60D3F8A02242F4427242F016
:100960000302C3F8A022D3F8AC2242F49C4242F026
:100970002002C3F8AC22D3F8A42242F4BB6242F0B6
:100980000402C3F8A4225A6842F020025A60704759
:1009900000060E4000120E400040094010B4401AFC
:1009A000019CE41A04FB00F0521A90FBF2F0184488
:1009B00010BC704730B583B0014491F9030005289D
:1009C00013DD40F63404009440F2DC53642200212D
:1009D000164DA847A04204DD154BC3F8A44203B04E
:1009E00030BD134BC3F8A402F9E710F1050F16DA76
:1009F00040F2DC5300934FF4617300226FF0630107
:100A00000A4CA047B0F5617F05DA4FF46172084BDC
:100A1000C3F8A422E3E7064BC3F8A402DFE740F2E1
:100A2000DC52034BC3F8A422D9E700BF9D0908009C
:100A300000400940164B00221A705A70154B4FF4B3
:100A40004071596459601A6F186F024022F4407265
:100A50001A6759664FF48072A3F500631A6103F5B3
:100A60000073AC21196040F2232119624FF4006138
:100A7000596040F20221C3F820114FF0FF31D960D4
:100A8000E121996004490A6050221A60704700BF52
:100A900058040020000E0E4000E100E0074B5B69A7
:100AA00013F0020F08D0054BD861044B5B6913F4B7
:100AB000007FFAD0002070470120704700080E40E8
:100AC00008B5154B5B6913F0E00F03D04FF4A87124
:100AD000114A116013F0010F12D010484278531CD4
:100AE000594203F03F0301F03F0158BF4B420178E8
:100AF0008B4206D00849886908490A4490704B70B7
:100B000008BD0748074B9847044B5978024A926939
:100B10000B449A7008BD00BF00080E405804002026
:100B2000C00D08001908080070B50F4E0F4D761B58
:100B3000B61018BF002405D0013455F8043B98477F
:100B4000A642F9D10A4E0B4D00F060F9761BB610A3
:100B500018BF002406D0013455F8043B9847A6423C
:100B6000F9D170BD70BD00BF180E0800180E080046
:100B7000200E0800180E0800931E222B10D80A2AF7
:100B800010B506D000230C46194400F00FF820469B
:100B900010BD0028F6DA2D2340420B700123F2E746
:100BA00000200870704700BFFFF7E6BFF0B58BB0BC
:100BB0006F461546DFF870E004460E46BEE80F00AB
:100BC0000FC7BEE80F000FC79EE80300AB1E47F833
:100BD000040B222B397022D8711E0846002300E036
:100BE0001346B4FBF5F205FB12440AAF3C4414F87B
:100BF000287C144600F8017F5A1C002CF0D1B45414
:100C0000F2184BB101344D781778181B844201F863
:100C1000017F02F80159F5DB30460BB0F0BD002032
:100C200030700BB0F0BD00BFE40D0800024B13B1F3
:100C3000024800F005B87047000000004D0C0800A5
:100C4000002301461A46184600F01EB838B50A4C73
:100C50000A4D641BA4100AD004F18043013B05EB4C
:100C60008305013C55F804399847002CF9D1BDE8BB
:100C7000384000F0D5B800BF300E08002C0E080038
:100C8000704700BF704700BF2DE9F8432C4D064662
:100C9000286898460F469146FFF7F2FF294B1C68DB
:100CA000D4F84831002B3ED05A681F2A1CDC02F1D0
:100CB000010E76B1012103EB8204C4F88890D3F8C9
:100CC000880191400843022EC3F88801C4F80881C6
:100CD00023D00232C3F804E0286843F82270FFF7FB
:100CE000D1FF0020BDE8F883174B0BB34FF4C87059
:100CF000AFF300800346D8B10020D4F848114FF07C
:100D0000010E586019600246C4F84831C3F88801E2
:100D1000C3F88C01002EDCD0CCE7D3F88C01014362
:100D2000C3F88C11D5E704F5A673C4F84831BBE7C6
:100D30002868FFF7A7FF4FF0FF30BDE8F88300BF3A
:100D400030040020E00D08000000000043414E3058
:100D5000206D657373616765206172726976656481
:100D600020696E206E6F6E2D75736564206D6169EC
:100D70006C626F780A0D0000476F616C212063750B
:100D80007272656E742073636F72653A20256420F9
:100D90000D0A000044415441303A202564200D0AD8
:100DA00000000000286E756C6C2900004441435F10
:100DB00057524954453A2025303878200D0A000012
:100DC0004552523A2055415254205258206275667D
:100DD0006665722069732066756C6C0A0D000000F0
:100DE000080000203031323334353637383961620B
:100DF000636465666768696A6B6C6D6E6F7071724B
:100E0000737475767778797A00000000F8B500BFC2
:100E1000F8BC08BC9E4670472D0C0800190108005C
:100E2000F8B500BFF8BC08BC9E467047F500080046
:100E300000093D000000000000000000F402002056
:100E40005C030020C403002000000000000000003C
:100E50000000000000000000000000000000000092
:100E60000000000000000000000000000000000082
:100E70000000000000000000000000000000000072
:100E80000000000000000000000000000000000062
:100E90000000000000000000000000000000000052
:100EA0000000000000000000000000000000000042
:100EB0000000000000000000000000000000000032
:100EC0000000000000000000000000000000000022
:100ED0000000000000000000000000000000000012
:100EE00001000000000000000E33CDAB34126DE6AF
:100EF000ECDE05000B000000000000000000000018
:100F000000000000000000000000000000000000E1
:100F100000000000000000000000000000000000D1
:100F200000000000000000000000000000000000C1
:100F300000000000000000000000000000000000B1
:041260009C040020CA
:040000038000000079
:00000001FF
